{
  "_format": "hh-sol-artifact-1",
  "contractName": "Trakteer",
  "sourceName": "contracts/Trakteer.sol",
  "abi": [
    {
      "inputs": [],
      "stateMutability": "nonpayable",
      "type": "constructor"
    },
    {
      "anonymous": false,
      "inputs": [
        {
          "indexed": true,
          "internalType": "address",
          "name": "_sender",
          "type": "address"
        },
        {
          "indexed": false,
          "internalType": "uint256",
          "name": "_amount",
          "type": "uint256"
        }
      ],
      "name": "Traktir",
      "type": "event"
    },
    {
      "inputs": [
        {
          "internalType": "address",
          "name": "account",
          "type": "address"
        }
      ],
      "name": "balance",
      "outputs": [
        {
          "internalType": "uint256",
          "name": "",
          "type": "uint256"
        }
      ],
      "stateMutability": "view",
      "type": "function"
    },
    {
      "inputs": [],
      "name": "owner",
      "outputs": [
        {
          "internalType": "address",
          "name": "",
          "type": "address"
        }
      ],
      "stateMutability": "view",
      "type": "function"
    },
    {
      "inputs": [
        {
          "internalType": "uint256",
          "name": "amount",
          "type": "uint256"
        }
      ],
      "name": "traktir",
      "outputs": [],
      "stateMutability": "payable",
      "type": "function"
    }
  ],
  "bytecode": "0x6080604052348015600f57600080fd5b50336000806101000a81548173ffffffffffffffffffffffffffffffffffffffff021916908373ffffffffffffffffffffffffffffffffffffffff1602179055506104bc8061005f6000396000f3fe6080604052600436106100345760003560e01c80637739f0f6146100395780638da5cb5b14610055578063e3d670d714610080575b600080fd5b610053600480360381019061004e9190610291565b6100bd565b005b34801561006157600080fd5b5061006a610211565b60405161007791906102ff565b60405180910390f35b34801561008c57600080fd5b506100a760048036038101906100a29190610346565b610235565b6040516100b49190610382565b60405180910390f35b803373ffffffffffffffffffffffffffffffffffffffff16311015610117576040517f08c379a000000000000000000000000000000000000000000000000000000000815260040161010e906103fa565b60405180910390fd5b803414610159576040517f08c379a000000000000000000000000000000000000000000000000000000000815260040161015090610466565b60405180910390fd5b60008054906101000a900473ffffffffffffffffffffffffffffffffffffffff1673ffffffffffffffffffffffffffffffffffffffff166108fc829081150290604051600060405180830381858888f193505050501580156101bf573d6000803e3d6000fd5b503373ffffffffffffffffffffffffffffffffffffffff167fd9aae716537f85d51019e76bbd4b3543f5ca6f5183f4f7872aac275f34026039826040516102069190610382565b60405180910390a250565b60008054906101000a900473ffffffffffffffffffffffffffffffffffffffff1681565b60008173ffffffffffffffffffffffffffffffffffffffff16319050919050565b600080fd5b6000819050919050565b61026e8161025b565b811461027957600080fd5b50565b60008135905061028b81610265565b92915050565b6000602082840312156102a7576102a6610256565b5b60006102b58482850161027c565b91505092915050565b600073ffffffffffffffffffffffffffffffffffffffff82169050919050565b60006102e9826102be565b9050919050565b6102f9816102de565b82525050565b600060208201905061031460008301846102f0565b92915050565b610323816102de565b811461032e57600080fd5b50565b6000813590506103408161031a565b92915050565b60006020828403121561035c5761035b610256565b5b600061036a84828501610331565b91505092915050565b61037c8161025b565b82525050565b60006020820190506103976000830184610373565b92915050565b600082825260208201905092915050565b7f496e73756666696369656e742062616c616e6365000000000000000000000000600082015250565b60006103e460148361039d565b91506103ef826103ae565b602082019050919050565b60006020820190508181036000830152610413816103d7565b9050919050565b7f496e636f72726563742045746865722076616c75652073656e74000000000000600082015250565b6000610450601a8361039d565b915061045b8261041a565b602082019050919050565b6000602082019050818103600083015261047f81610443565b905091905056fea2646970667358221220f30cdb941212a6b3d2bdf575a4e3a34e812134c0d9caa38f5d2a7f5be10a45a164736f6c634300081c0033",
  "linkReferences": {},
  "deployedLinkReferences": {}
}